:020000000C945E
:100002002F000C9400000C9400000C9400000C943F
:1000120000000C9400000C9400000C9400000C945E
:1000220000000C9400000C9400000C9400000C944E
:1000320000000C9400000C9400000C9400000C943E
:1000420000000C9400000C9400000C9400000C942E
:10005200000001010200040054000000F894EE27A1
:10006200ECBBF1E0F5BFE5BF8DE0A2E0BB27ED936D
:100072008A95E9F780E098E0A0E6ED930197E9F729
:10008200E6E5F0E085919591009761F0A591B59133
:1000920005901590BF01F00105900D920197E1F7CF
:1000A200FB01F0CFEFE5EDBFE8E0EEBFC0E6D2E046
:1000B2000C945B00EEE2EABBE1EDEBBBE8E3E4BBF0
:1000C200E7ECE5BBEFEFE1BBE0E0E2BBD99ADB9AFC
:1000D2009D989B9AE1E0E41559F5DD9ADA9A9C9A8B
:1000E200D89908C0DC9B06C09E9904C0999902C0A9
:1000F2009A9B01C009C0929AA2E3B0E00E94A700B5
:100102009298E1E05E2E12C0D89B08C0DC9906C02E
:100112009E9B04C0999B02C09A9901C007C0939A02
:10012200A2E3B0E00E94A7009398552444240CC097
:10013200442051F4E1E0E51519F49398929A04C031
:10014200552011F49298939AC5CFFFCF109639F0AB
:10015200A8958DEC9AE00197F1F71197C9F70895E8
:00000001FF
