:060000000C9445000C9475
:1000060000000C9400000C9400000C9400000C946A
:1000160000000C9400000C9400000C9400000C945A
:1000260000000C9400000C9400000C9400000C944A
:1000360000000C9400000C9400000C9400000C943A
:1000460000000C9400000C9400000C9400000C942A
:1000560000000C9400000C9400000C9400000C941A
:1000660000001027E80364000A00010000100001E8
:100076001000010068656C6C6F20776F726C6420ED
:100086000D200A00F894EE27EFBBF1E0F5BFE5BFBF
:100096008DE0A2E0BB27ED938A95E9F780E098E032
:1000A600A0E0B1E0ED930197E9F7E0E0EEBBEFEFFA
:1000B600EDBFE8E0EEBFC0E0D3E00C946200E0E8FC
:1000C600E0936100E0E0E0936100E4B9E5B9E7B9E7
:1000D600E8B9EAB9EBB9E4BDE5BDE6BDE7BDE8BD03
:1000E600E0938000E0938100E0938500E093840034
:1000F600E0938700E0938600E0938900E093880010
:10010600E0938B00E0938A00E093B600E093B000A2
:10011600E093B100E093B200E093B300E093B40043
:10012600E0936E00E0936F00E0937000E093690047
:10013600EDBBE0936800E093C000E8E1E093C10006
:10014600E6E0E093C200E0E0E093C500E7E4E09378
:10015600C400E0E8E0BFE0E0E0937B00E0937F00CE
:10016600E0937A00ECBDE093BC00EAE7F0E0FA9396
:10017600EA9380E052D12296A4EFB1E00E94730286
:10018600F4CFFFCFAA93E091C000E072E1F3E881DB
:10019600E093C60021960895BA93AA93AA81F2DF46
:1001A600A881B981ED91FD913196FE93EE93239648
:1001B6000895BA93AA9326970E948D0210E0AC8503
:1001C600BD85E0E0F0E0ED93FC93EA89FB8931968A
:1001D600EA8BFB8B3197E4912E2FE03009F415C1A1
:1001E600E12FE03039F4253211F411E002C00E940B
:1001F6004E020AC1E130A9F4253219F40E944E02DA
:1002060002C112E040E000E02D3211F401E0FCC032
:100216002B3211F44BE2F8C0203211F440E2F4C064
:1002260002C0E23039F450E013E0203311F40068E4
:10023600EBC003C0E33009F0E7C0203310F02A33E7
:1002460008F007C0AAE05A9F502DE22FE0535E0F38
:10025600DBC0E22FE33649F40E945502E889F989AA
:10026600A481AA930E945B02CEC0E33741F40E94A8
:1002760055020E9461020E9435021E2F0AC0E03715
:1002860061F40E9455020E9461020E9441021E2FE3
:10029600086002600F7730E034C0E43611F0E936CA
:1002A60011F4046002C0E53731F4E8E6F0E0EE83CD
:1002B600FF8315E00CC0E83511F4086003C0E83789
:1002C60009F0A1C0E2E7F0E0EE83FF8314E002FF4D
:1002D60014C00E9455020E946B02AB85AA233AF411
:1002E600EA85FB850E948102EA87FB874DE2403062
:1002F60011F01F5F01C00B7F04C00E9455020E94CF
:100306006B0200FD11C0151778F407FF08C002FF45
:1003160004C00B7F242F115001C020E301C020E24E
:100326000E944E025150EFCF312F01FF17C03030DF
:10033600A1F003FF06C0EE81FF812591EE83FF83C6
:1003460005C0AE81BF812D91AE83BF830E944E0250
:10035600503009F051503150EACF4BC020E3EE81C6
:10036600FF810E948902E887F987EE81FF81329634
:10037600EE83FF83E885F985AA85BB85AE17BF079F
:1003860050F02F5FA885B985EA85FB85EA1BFB0B34
:10039600EA87FB87EFCF2A3328F003FF02C0295FE5
:1003A60001C0295D04FD1AC0213320F4A885B98552
:1003B600119709F409C0531710F000FF01C013C0CC
:1003C60020E207FF0BC020E3006102FF07C00B7F9E
:1003D6004A930E945B02503009F051500E944E022F
:1003E600503009F051503150A885B985129708F060
:1003F600B5CF00FF08C0503031F05150E0E2EA932B
:100406000E945B02F8CF10E0E0CEAC85BD850E946D
:1004160085020E94940264960895FF92F82E26970C
:100426001A930A93DE0114960E947D028D01E0E084
:10043600EC83ED83EE83EF83DE0118960E947D0246
:100446000E948502FA93EA931A930A93EFECF0E07E
:10045600FA93EA93DE011896ACDE19810881289694
:10046600FF900895BA93AA93A991B991EE27FF2711
:100476006D91662311F03196FBCF0895BA93AA9336
:10048600AA27BB27E991F9910590002011F0119652
:10049600FBCFFD0108952A93AD85BE85EF85F889CA
:1004A60009950895E889F9893497E88BF98B0895B9
:1004B600AD85BE85EF85F88909950895A889B9891E
:1004C60014960E948502EE83FF83AE81BF81089554
:1004D600A889B98914960E948502EA87FB87089540
:1004E600109639F0A8958DEC9AE00197F1F71197DF
:1004F600C9F708950024AF0DB01D0895F195E19553
:10050600F0400895ED91FC91119708950590F491AE
:10051600E02D08955A934A933A932A931A930A938D
:1005260008955D814C813B812A8119810881089556
:00000001FF
