:0A0000000C944B000C9400000C94CB
:10000A0000000C9400000C9400000C9400000C9466
:10001A0000000C9400000C9400000C9400000C9456
:10002A0000000C9400000C9400000C9400000C9446
:10003A0000000C9400000C9400000C9400000C9436
:10004A0000000C9400000C9400001027E8036400E0
:10005A000A0001000010000110000100456E7465DD
:10006A007220746865206368617261637465720ADC
:10007A000D0001002D4E414E00494E46000016006B
:10008A0060026600010076027C000000F894EE2708
:10009A00ECBBF1E0F5BFE5BF8DE0A2E0BB27ED9335
:1000AA008A95E9F780E098E0A0E6ED930197E9F7F1
:1000BA00E8E8F0E085919591009761F0A591B591F6
:1000CA0005901590BF01F00105900D920197E1F797
:1000DA00FB01F0CFEFE5EDBFE8E0EEBFC0E6D2E00E
:1000EA000C94A7001A930A9307E610E009B9E12FC6
:1000FA00F070E0BDE8E1EAB9E6E8E0BD09911991DE
:10010A000895AA935D9BFECFE881ECB95E9BFECF72
:10011A00219608951A935F9BFECF1CB1E12F199186
:10012A000895BA93AA93A881B981EC91E03041F07D
:10013A00AC91E7DFE881F9813196E883F983F3CF5F
:10014A0022960895EFEFE7BBE0E0E8BBC09AA8EE7D
:10015A00B3E00E94BB00C098C5DFA0E6B2E0E1DFD1
:10016A00D9DF1E2FA12FCDDFFBCFFFCF109639F09D
:10017A00A8958DEC9AE00197F1F71197C9F70895C0
:00000001FF
