:0A0000000C9449000C9400000C94CD
:10000A0000000C9400000C9400000C9400000C9466
:10001A0000000C9400000C9400000C9400000C9456
:10002A0000000C9400000C9400000C9400000C9446
:10003A0000000C9400000C9400000C9400000C9436
:10004A0000000C9400000C9400001027E8036400E0
:10005A000A000100001000011000010061003400D4
:10006A00350001002D4E414E00494E460000020067
:10007A0060026600020062026800020064026A000E
:10008A00010066026C000000F894EE27ECBBF1E078
:10009A00F5BFE5BF8DE0A2E0BB27ED938A95E9F7AE
:1000AA0080E098E0A0E6ED930197E9F7E8E7F0E051
:1000BA0085919591009761F0A591B591059015905C
:1000CA00BF01F00105900D920197E1F7FB01F0CF16
:1000DA00EFE5EDBFE8E0EEBFC0E6D2E00C94A00089
:1000EA00EAB1E861EAB9E0B5E668E0BDE8E1E9B994
:1000FA00E0E0E0BD08955F9BFECFECB10895AA93BE
:10010A005D9BFECFE881ECB94CC0BA93AA931A93CF
:10011A0010E0A981BA81EE27A10FBE1FEC91E03051
:10012A0049F0A981BA81EE27A10FBE1FAC91E7DF82
:10013A001F5FEFCF48C02297D3DFEFEFE1BBE0E0CC
:10014A00E2BB939AA8EEB3E00E94EB009398A0E674
:10015A00B2E0DBDFA2E6D3DFC3DFCDDFE883A8812D
:10016A00CEDFA881A13311F4939A0BC0A881A233E0
:10017A0039F0A13631F4939AA4E6B0E00E94EB007C
:10018A009398AEDFA2E6B2E0C0DFAADFA4E6B2E04F
:10019A000E94D800E1CFFFCFAA935D9BFECFE881F2
:1001AA00ECB921960895BA93AA931A93A981BA81B0
:1001BA00ED91A983BA831E2FE03019F0A12FECDF4D
:1001CA00F5CFAAE0E9DF188123960895109639F051
:1001DA00A8958DEC9AE00197F1F71197C9F7089560
:00000001FF
