:100000000C943E000C9400000C9400000C94000032
:100010000C9400000C9400000C9400000C94000060
:100020000C9400000C9400000C9400000C94000050
:100030000C9400000C946B000C9400000C948A004B
:100040000C9400000C9400000C9400000C94000030
:100050000C9400001027E80364000A00010000105F
:10006000000110000100000000000000000001007D
:10007000020066000600040068000000F894EE2705
:10008000ECBBF1E0FBBFEBBFE5BF8DE0A2E0BB271F
:10009000ED938A95E9F780E098E0A0E6ED9301976B
:1000A000E9F7EEE6F0E085919591009761F0A59172
:1000B000B59105901590BF01F00105900D92019743
:1000C000E1F7FB01F0CFEFE5EDBFE8E0EEBFC0E602
:1000D000D2E00C94BC00EA93FA93EFB7EA931A9338
:1000E0000A931BB10CB1E12FEC7189F4E52D539407
:1000F000F0E0E05AFD4F0083E0E4E51509F45524F3
:100100007394E0E4E71519F47724689420F80991D2
:10011000199112C0EA93FA93EFB7EA93882061F03D
:100120008A94E92D9394F0E0E056FD4FE081ECB91C
:10013000E0E4E91509F49924E991EFBFF991E99117
:100140001895AA93E0E4E815E9F3F894882011F4EF
:100150005D990DC0E62D6394F0E0E056FD4FA88157
:10016000A083E0E4E61509F46624839402C0E881E4
:10017000ECB9789421960895789411E6A12FE1DFE7
:10018000A8EEB3E00E94C600F8CFFFCF109639F07A
:10019000A8958DEC9AE00197F1F71197C9F70895AA
:00000001FF
