:060000000C945E000C945C
:1000060000000C9400000C9400000C9400000C946A
:1000160000000C9400000C9400000C9400000C945A
:1000260000000C9400000C9400000C9400000C944A
:1000360000000C9400000C9400000C9400000C943A
:1000460000000C9400000C9400000C940000102793
:10005600E80364000A00010000100001100001001E
:100066000A09204563686F205465737420000D20CB
:100076000A2009203430303720000D200A200920BC
:100086003430303220000D200A0001002D4E414E42
:1000960000494E4600000E00600266000C006E022B
:1000A60074000C007A028000040086028C000100B5
:1000B6008A0290000000F894EE27ECBBF1E0F5BF51
:1000C600E5BF8DE0A2E0BB27ED938A95E9F780E0D6
:1000D60098E0A0E6ED930197E9F7ECE9F0E0859169
:1000E6009591009761F0A591B59105901590BF0186
:1000F600F00105900D920197E1F7FB01F0CFEFE5D6
:10010600EDBFE8E0EEBFC0E6D2E00C94B800EAB17D
:10011600E861EAB9E0B5E668E0BDE7E4E9B9E0E040
:10012600E0BD08955F9BFECFECB10895AA935D9B59
:10013600FECFE881ECB921960895BA93AA931A9353
:1001460010E0A981BA81EE27A10FBE1FEC91E03025
:1001560049F0A981BA81EE27A10FBE1FAC91E6DF57
:100166001F5FEFCF1881239608952297D0DFA0E670
:10017600B2E0E3DFCCDFD6DFE883A881D7DFA88152
:10018600A13319F4AEE6B2E005C0A881A23319F492
:10019600AAE7B2E0D2DFDE01D0DFA6E8B2E0CDDF2B
:1001A600A8EEB3E00E94D900E5CFFFCF109639F054
:1001B600A8958DEC9AE00197F1F71197C9F7089584
:00000001FF
