:0C0000000C942A000C9400000C940000EA
:10000C000C9400000C9400000C9400000C94000064
:10001C000C9400000C9400000C9400000C94000054
:10002C000C9400000C9400000C9400000C94000044
:10003C000C9400000C9400000C9400000C94000034
:10004C000C9400000C940000F894EE27ECBBF1E04B
:10005C00F5BFE5BF8DE0A2E0BB27ED938A95E9F7EC
:10006C0080E098E0A0E6ED930197E9F7EFE5EDBFAE
:10007C00E8E0EEBFC0E6D2E00C944400EFE0EABB4F
:10008C00E0E0EBBBDC9ACC9B04C006D005D004D0DE
:10009C0001C0D898F8CFFFCFD89AA2E3B0E00E9465
:1000AC005C00D898A2E3B0E00C945C00109639F098
:1000BC00A8958DEC9AE00197F1F71197C9F708957F
:00000001FF
