:0C0000000C9432000C9400000C940000E2
:10000C000C9400000C9400000C9400000C94000064
:10001C000C9400000C9400000C9400000C94000054
:10002C000C9400000C9400000C9400000C94000044
:10003C000C9400000C9400000C9400000C94000034
:10004C000C9400000C940000010001010000000061
:10005C000800040054000000F894EE27ECBBF1E01B
:10006C00F5BFE5BF8DE0A2E0BB27ED938A95E9F7DC
:10007C0080E098E0A0E6ED930197E9F7ECE5F0E07D
:10008C0085919591009761F0A591B591059015908A
:10009C00BF01F00105900D920197E1F7FB01F0CF44
:1000AC00EFE5EDBFE8E0EEBFC0E6D2E00C948000D7
:1000BC00AA93E981EEBBA981E8E00E944601EFBB5F
:1000CC00E881EDBBE29AE19AECB3F0E0F595E795A7
:1000DC00E170E130C9F323960895BA93AA93E881AD
:1000EC00EEBBA881E8E00E944601EFBBE09AEDB3BD
:1000FC0022960895EFEFE7BBE0E0E8BBE0EFEABB48
:10010C00E0E0EBBBD89AD99ADA9AA7D0A6D04514DE
:10011C0009F041C0442019F4439477243BC09DD08E
:10012C00642D7727E42DA8E0EA9FF001DB01AE0FE8
:10013C00BF1FD3DF8E2E77249924E1E06E2EBB24D3
:10014C0099249414A0F4E92DF0E0EF59FD4FA0810F
:10015C00A13011F4B39408C0E92DF0E0EF59FD4F34
:10016C00E081E03009F4BB0C93949394EACF8B14A8
:10017C0009F06624E1E0E61529F4C09A73D0C09822
:10018C00552408C0662031F4C19A6CD0C19855240E
:10019C00E1E06E2E60C0C89B0AC064D0E52DF0E093
:1001AC00EF59FD4FA1E0A0835394772454C0C99B11
:1001BC000AC058D0E52DF0E0EF59FD4FA0E0A08328
:1001CC005394772448C0CA9B44C044248824C09AC2
:1001DC00C19ACA9B28C0C89B0DC0C19843D0C19A74
:1001EC00E42DF0E0E05AFD4FA1E0A083E82D8394CC
:1001FC008E2E0CC0C99B11C0C19834D0C19AE42D6D
:10020C00F0E0E05AFD4FA0E0A083880CE42DF0E074
:10021C00EF59FD4FA0E0A0834394CA9903C022D0AC
:10022C00CA9B01C0D6CF642D7727A42DE8E0EA9FA6
:10023C00F001E60FF71FFA93EA93A82D39DF552446
:10024C00E0E5F0E0FA93EA93A42D32DFC198C09870
:10025C0002C0C098C1985ACFFFCFA0E5B0E03DDFF7
:10026C004E2E0895A6E9B0E00C943C01109639F09E
:10027C00A8958DEC9AE00197F1F71197C9F70895BD
:10028C00EE230E2EEA2F19F0E6950A94E9F708955D
:00000001FF
