:100000000C9435000C9400000C9400000C9400003B
:100010000C9400000C9400000C9400000C94000060
:100020000C9400000C9400000C9400000C94000050
:100030000C9400000C9400000C9400000C94000040
:100040000C9400000C9400000C9400000C94000030
:100050000C940000010100010001000102000400F5
:1000600054000600600256000000F894EE27ECBB36
:10007000F1E0F5BFE5BF8DE0A2E0BB27ED938A95E7
:10008000E9F780E098E0A0E6ED930197E9F7ECE569
:10009000F0E085919591009761F0A591B59105905B
:1000A0001590BF01F00105900D920197E1F7FB015A
:1000B000F0CFEFE5EDBFE8E0EEBFC0E6D2E00C9494
:1000C0006100E5E5EABBEAEAEBBBE4EAE4BBEBE5A9
:1000D000E5BBEFEFE1BBE0E0E2BBD89AE1E0E4157D
:1000E00009F079C06624E2E06E1608F072C0E09173
:1000F0006002E03011F4DA9801C0DA9AE09161020E
:10010000E03011F4DC9801C0DC9AE0916202E0304A
:1001100011F4DE9801C0DE9AE0916302E03011F440
:10012000AF9801C0AF9AE0916402E03011F4AD984D
:1001300001C0AD9AE0916502E03011F4AA9801C0C7
:10014000AA9AA2E3B0E00E942E0153D051F459D0F4
:1001500041F45FD031F465D021F46BD011F471D04B
:1001600009F009C0929AA8ECB0E00E942E01929882
:10017000E1E05E2E14C03DD051F043D041F049D0B3
:1001800031F04FD021F055D011F05BD009F407C009
:10019000939AA8ECB0E00E942E0193985524A2E314
:1001A000B0E00E942E017724E6E07E1680F451D064
:1001B000A081A13019F44DD0A0E006C04AD0E08162
:1001C000E03019F446D0A1E0A0837394EDCF63949E
:1001D0008ACF44240CC0442051F4E1E0E51519F421
:1001E0009398929A04C0552011F49298939A76CFDE
:1001F000FFCFA0E0C999A1E0E0E0DA9BE1E0EA17D7
:100200000895A0E0CB99A1E0E0E0DC9BE1E0EA17F3
:100210000895A0E0CD99A1E0E0E0DE9BE1E0EA17DF
:100220000895A0E09E99A1E0E0E0AF9BE1E0EA172D
:100230000895A0E09C99A1E0E0E0AD9BE1E0EA1721
:100240000895A0E09999A1E0E0E0AA9BE1E0EA1717
:100250000895E72DF0E0E05AFD4F0895109639F02B
:10026000A8958DEC9AE00197F1F71197C9F70895D9
:00000001FF
