:020000000C945E
:1000020035000C9400000C9400000C9400000C9439
:1000120000000C9400000C9400000C9400000C945E
:1000220000000C9400000C9400000C9400000C944E
:1000320000000C9400000C9400000C9400000C943E
:1000420000000C9400000C9400000C9400000C942E
:10005200000001010001000100010200040054003F
:100062000600600256000000F894EE27ECBBF1E0B7
:10007200F5BFE5BF8DE0A2E0BB27ED938A95E9F7D6
:1000820080E098E0A0E6ED930197E9F7ECE5F0E077
:1000920085919591009761F0A591B5910590159084
:1000A200BF01F00105900D920197E1F7FB01F0CF3E
:1000B200EFE5EDBFE8E0EEBFC0E6D2E00C946100F0
:1000C200E5E5EABBEAEAEBBBE4EAE4BBEBE5E5BB68
:1000D200EFEFE1BBE0E0E2BBD89AE1E0E41509F022
:1000E2007AC06624E2E06E1608F073C0E091600206
:1000F200E03011F4DA9801C0DA9AE0916102E0305E
:1001020011F4DC9801C0DC9AE0916202E03011F453
:10011200DE9801C0DE9AE0916302E03011F4AF98FC
:1001220001C0AF9AE0916402E03011F4AD9801C0D1
:10013200AD9AE0916502E03011F4AA9801C0AA9A42
:10014200AAE0B0E00E942F0154D051F45AD041F4F9
:1001520060D031F466D021F46CD011F472D009F081
:1001620009C0929AA2E3B0E00E942F019298E1E0C6
:100172005E2E15C03ED051F044D041F04AD031F04D
:1001820050D021F056D011F05CD009F408C0939AF7
:10019200A2E3B0E00E942F01939855241AC0AAE06E
:1001A200B0E00E942F017724E6E07E1680F451D061
:1001B200A081A13019F44DD0A0E006C04AD0E08160
:1001C200E03019F446D0A1E0A0837394EDCF63949C
:1001D20089CF44240CC0442051F4E1E0E51519F420
:1001E2009398929A04C0552011F49298939A75CFDD
:1001F200FFCFA0E0C999A1E0E0E0DA99E1E0EA17D7
:100202000895A0E0CB99A1E0E0E0DC99E1E0EA17F3
:100212000895A0E0CD99A1E0E0E0DE99E1E0EA17DF
:100222000895A0E09E99A1E0E0E0AF99E1E0EA172D
:100232000895A0E09C99A1E0E0E0AD99E1E0EA1721
:100242000895A0E09999A1E0E0E0AA99E1E0EA1717
:100252000895E72DF0E0E05AFD4F0895109639F029
:10026200A8958DEC9AE00197F1F71197C9F70895D7
:00000001FF
