:020000000C945E
:1000020044000C9400000C9400000C9400000C942A
:1000120000000C9400000C9400000C9400000C945E
:1000220000000C9400000C9400000C9400000C944E
:1000320000000C9400000C9400000C9400000C943E
:1000420000000C9400000C9400000C9400000C942E
:1000520000001027E80364000A00010000100001FC
:100062001000010001010000343030360066756373
:100072006B00040004006600050060026A000500CF
:1000820065026F000000F894EE27ECBBF1E0F5BFCB
:10009200E5BF8DE0A2E0BB27ED938A95E9F780E00A
:1000A20098E0A0E6ED930197E9F7E4E7F0E08591A7
:1000B2009591009761F0A591B59105901590BF01BA
:1000C200F00105900D920197E1F7FB01F0CFEFE50A
:1000D200EDBFE8E0EEBFC0E6D2E00C947000EFEFB7
:1000E200EABBE0E0EBBBE4BBEFEFE5BBE1BBE0E08A
:1000F200E2BBDE98DA9AEBB9E8E1EAB9E6E8E0BDFC
:10010200E0E0E0BDE3E3E9B9E1E0E41509F09FC016
:100112007724E4E07E1640F5A72DBB27E2E0F0E06D
:100122000E947B01309729F0E1E0E03011F0E1E03C
:1001320001C0E0E0E03011F4D89801C0D89AA0E004
:10014200D89BA1E0E1E0EA2311F4DB9801C0DB9A3D
:10015200DC9ADD980E945601DA980E945601DA9ADA
:100162000E9456017394D5CF7724E4E07E1608F0FE
:100172006CC07720B1F4999B06C09B9904C09C99EE
:1001820002C09E9B01C007C0939A0E945601939899
:10019200E1E05E2E05C0929A0E9456019298552483
:1001A2004AC0E1E0E715B1F4999B06C09B9904C0EF
:1001B2009C9902C09E9B01C007C0939A0E9456015F
:1001C2009398E1E05E2E05C0929A0E9456019298A1
:1001D200552431C0E2E0E715B1F4999906C09B9924
:1001E20004C09C9902C09E9B01C007C0939A0E94C2
:1001F20056019398E1E05E2E05C0929A0E94560144
:100202009298552418C0E3E0E715A9F4999B06C01B
:100212009B9904C09C9902C09E9B01C007C0939AFF
:100222000E9456019398E1E05E2E05C0929A0E94C8
:100232005601929855240E945601DA980E9456015E
:10024200DA9A73940E94560190CF442412C044203B
:1002520081F4E1E0E51529F49298939AA0E6B2E0E0
:1002620006C0552031F49398929AA5E6B2E00E9416
:1002720043014ACFFFCFAA935D9BFECFE881ECB941
:1002820021960895BA93AA931A93A981BA81ED91FE
:10029200A983BA831E2FE03019F0A12FECDFF5CF2E
:1002A200AAE0E9DF188123960895A4E6B0E00C9451
:1002B2005A01109639F0A8958DEC9AE00197F1F762
:1002C2001197C9F70895F195E195F040089500243A
:1002D200112490E1AA0FBB1F001C111C0E1A1F0A49
:1002E20018F40E0E1F1E01C0A1609A9599F7FD0128
:1002F200D0010895E894B7FF04C0A095B095119677
:100302006894F7FDE0DFE3DFFD010EF4DCDF089522
:00000001FF
