:040000000C94370025
:100004000C9400000C9400000C9400000C9400006C
:100014000C9400000C9400000C9400000C9400005C
:100024000C9400000C9400000C9400000C9400004C
:100034000C9400000C9400000C9400000C9400003C
:100044000C9400000C9400000C9400000C9400002C
:100054000600000100000101010000010600040087
:100064005400060060025A000000F894EE27ECBB2E
:10007400F1E0F5BFE5BF8DE0A2E0BB27ED938A95E3
:10008400E9F780E098E0A0E6ED930197E9F7E0E670
:10009400F0E085919591009761F0A591B591059057
:1000A4001590BF01F00105900D920197E1F7FB0156
:1000B400F0CFEFE5EDBFE8E0EEBFC0E6D2E00C9490
:1000C4006300EFEFE7BBE0E0E8BBE0EFEABBE0E0B2
:1000D400EBBBD89AD99ADA9A451429F5641458F4E2
:1000E40075D019F4E1E07E2E04C070D011F07724AD
:1000F40002C06394F3CF6624E1E0E71541F4C09AAB
:10010400A2E3B0E00E94F800C09855240BC0772009
:1001140049F4C19AA2E3B0E00E94F800C1985524C2
:10012400E1E07E2E51C0C89B1BC05CD0C89B03C0BD
:1001340059D09394FBCFE7E0E91530F0E52DF0E0DA
:10014400EA59FD4FA1E008C0E7E0E91538F4E52DD0
:10015400F0E0EA59FD4FA0E0A0835394992434C001
:10016400CA9B30C04424C09A9924CA9B28C03AD060
:10017400C89B1FC0C89B03C035D09394FBCFE6E057
:10018400E91530F0E42DF0E0E05AFD4FA1E008C09D
:10019400E6E0E91568F4E42DF0E0E05AFD4FA0E054
:1001A400A083E42DF0E0EA59FD4FA0E0A08343943E
:1001B4009924CA9903C016D0CA9B01C0D6CF55242E
:1001C400C09802C0C098C19887CFFFCFE62DF0E059
:1001D400EA59FD4FA081E62DF0E0E05AFD4FE081A1
:1001E400EA170895A4E1B0E00C94F800109639F0F1
:1001F400A8958DEC9AE00197F1F71197C9F7089546
:00000001FF
