:100000000C9436000C9400000C9400000C9400003A
:100010000C9400000C9400000C9400000C94000060
:100020000C9400000C9400000C9400000C94000050
:100030000C9400000C9400000C9400000C94000040
:100040000C9400000C9400000C9400000C94000030
:100050000C940000060000010000010101000600F0
:1000600004005400030060025A000000F894EE27D8
:10007000ECBBF1E0F5BFE5BF8DE0A2E0BB27ED935F
:100080008A95E9F780E098E0A0E6ED930197E9F71B
:10009000EEE5F0E085919591009761F0A591B5911D
:1000A00005901590BF01F00105900D920197E1F7C1
:1000B000FB01F0CFEFE5EDBFE8E0EEBFC0E6D2E038
:1000C0000C948400AA93E981EEBBA981E8E00E9428
:1000D0007801EFBBE881EDBBE29AE19AECB3F0E086
:1000E000F595E795E170E130C9F323960895BA9349
:1000F000AA93E881EEBBA881E8E00E947801EFBBFB
:10010000E09AEDB322960895EFEFE7BBE0E0E8BB9D
:10011000E0EFEABBE0E0EBBBD89AD99ADA9AA0E527
:10012000B0E0E5DFEF3FB9F0A0E5B0E0E0DF4E2E54
:100130009BD09924941478F49BD0EF3F51F0A2D037
:10014000FF93EF9395D0AF91BF91EC93E92D9FD0A2
:100150008BD09394EFCF451481F5442079F4E6E0F9
:100160004E2E9BD09924941448F49DD0A081AADFF0
:1001700089D0A1E0A08378D09394F5CF641458F48B
:100180009DD019F4E1E07E2E04C098D011F07724C0
:1001900002C06394F3CF6624E1E0E71529F4C09A26
:1001A00099D0C098552408C0772031F4C19A92D0D4
:1001B000C1985524E1E07E2E55C0C89B09C08AD065
:1001C000E52DF0E0EA59FD4FA1E0A08353944AC029
:1001D000C99B05C07FD0E52D5AD0539443C0CA9B1C
:1001E0003FC04424C09AC19ACA9B1FC0C89B09C083
:1001F000C19870D0C19AE42DF0E0E05AFD4FA1E023
:100200000AC0C99B0CC0C19865D0C19AE42DF0E02A
:10021000E05AFD4FA0E0A083E42D39D04394CA9961
:1002200003C058D0CA9B01C0DFCF37D0C098A6E921
:10023000B0E00E946E01C09A9924941468F433D0FF
:10024000A08140DFC098C198A6E9B0E00E946E018D
:10025000C09AC19A9394F1CF5524C198C09802C016
:10026000C098C19878CFFFCFA4E6B0E00C946E019F
:10027000692D7727A92DE8E0EA9FF001DB01AE0F99
:10028000BF1F35CFE92DF0E0E05AFD4F0895F0E0B3
:10029000EA59FD4FA0E0A0830895E0E5F0E0FA936D
:1002A000EA93A42D0FCF692D7727A92DE8E0EA9FC7
:1002B000F001E60FF71FFA93EA93E4CFE62DF0E0A2
:1002C000EA59FD4FA081E62DF0E0E05AFD4FE081B4
:1002D000EA170895A8ECB0E00C946E01109639F07E
:1002E000A8958DEC9AE00197F1F71197C9F7089559
:1002F000EE230E2EEA2F19F0E6950A94E9F70895F9
:00000001FF
