:0C0000000C9430000C9400000C940000E4
:10000C000C9400000C9400000C9400000C94000064
:10001C000C9400000C9400000C9400000C94000054
:10002C000C9400000C9400000C9400000C94000044
:10003C000C9400000C9400000C9400000C94000034
:10004C000C9400000C94000001010000040004005A
:10005C0054000000F894EE27ECBBF1E0F5BFE5BFCF
:10006C008DE0A2E0BB27ED938A95E9F780E098E05C
:10007C00A0E6ED930197E9F7E8E5F0E0859195911D
:10008C00009761F0A591B59105901590BF01F00115
:10009C0005900D920197E1F7FB01F0CFEFE5EDBF75
:1000AC00E8E0EEBFC0E6D2E00C945C00EFEFEABBF8
:1000BC00E0E0EBBBE3E8E4BBECE7E5BBEFEFE1BB77
:1000CC00E0E0E2BBE1E0E41509F0F3C0AF98A0E09A
:1000DC00AF99A1E0A23008F0EAC08824E0E18E16C6
:1000EC0008F0DEC0F4D0682C9924E4E09E1638F4B5
:1000FC00E92DF0E0E05AFD4FEED09394F6CFE7D027
:10010C0060906002E0916302E0936002609263028F
:10011C00DED060906102E0916202E0936102609235
:10012C006202D5D0E0916302E03011F4DE9801C098
:10013C00DE9AE0916202E03011F4DC9801C0DC9AA6
:10014C00E0916102E03011F4DA9801C0DA9AE091A2
:10015C006002E03011F4D89801C0D89AB8D0A82D1C
:10016C00BB27E3E0F0E00E94D801BE2EE0E1BE1612
:10017C0008F094C06B2C9924E4E09E1638F4E92D19
:10018C00F0E0EC59FD4FA7D09394F6CFA0D060903F
:10019C006402E0916702E09364026092670297D078
:1001AC0060906502E0916602E093650260926602DF
:1001BC008ED0E0916702E03011F4DD9801C0DD9A39
:1001CC00E0916602E03011F4DB9801C0DB9AE0911B
:1001DC006502E03011F4D99801C0D99AE09164021B
:1001EC00E03011F4A99801C0A99A71D0AB2DA80DDB
:1001FC00E0E0AF99E1E0EA0F7E2E9924E5E09E164F
:10020C00B0F4E92DF0E0E859FD4F0F01E72DF0E0D7
:10021C00A1E0B0E00E94E601D001EC93A72DB0E084
:10022C00E2E0F0E00E94D3017E2E9394E7CF4FD012
:10023C0060906802E0916C02E093680260926C023C
:10024C0046D060906902E0916B02E0936902609283
:10025C006B023DD051D031F45BD021F465D011F458
:10026C006FD009F009C0929AA2E3B0E00E94B201EB
:10027C009298E1E05E2E0FC03FD031F449D021F4CA
:10028C0053D011F45DD039F0939AA2E3B0E00E9400
:10029C00B20193985524E3E0BE0E68CF83941ECF31
:1002AC00E0E0AF99E1E0EF5FE5BBE15010CF442413
:1002BC000CC0442051F4E1E0E51519F49398929A9E
:1002CC0004C0552011F49298939AFCCEFFCFAAE06B
:1002DC00B0E00C94B2010F01E62DF0E0A1E0B0E02B
:1002EC000E94E601D001EC93A62DB0E0E2E0F0E034
:1002FC000E94D3016E2E0895A0E09E99A1E0E0919A
:10030C006C02B0E0A7FDBFEFF0E0EA17FB07089521
:10031C00A0E09D99A1E0E0916B02B0E0A7FDBFEFDA
:10032C00F0E0EA17FB070895A0E09C99A1E0E091AA
:10033C006A02B0E0A7FDBFEFF0E0EA17FB070895F3
:10034C00A0E09B99A1E0E0916902B0E0A7FDBFEFAE
:10035C00F0E0EA17FB070895109639F0A8958DEC9C
:10036C009AE00197F1F71197C9F70895F195E19586
:10037C00F04008950024112490E1AA0FBB1F001C2B
:10038C00111C0E1A1F0A18F40E0E1F1E01C0A160BC
:10039C009A9599F7FD01D00108951CD0EBDF0EF46E
:1003AC00E5DF0895E894B7FF04C0A095B0951196C9
:1003BC006894F7FDDBDFDEDFFD010EF4D7DF089577
:1003CC00E894F7FF02C0D2DF6894EA23FB230EF413
:1003DC00CDDF0895E894F7FF02C0C8DF6894B7FF3B
:1003EC0006C0A095B095119600F8039400FA0895F4
:00000001FF
