:080000000C9436000C94000082
:100008000C9400000C9400000C9400000C94000068
:100018000C9400000C9400000C9400000C94000058
:100028000C9400000C9400000C9400000C94000048
:100038000C9400000C9400000C9400000C94000038
:100048000C9400000C9400000C94000000000106C1
:1000580000000101010006000400540003006002D2
:100068005A000000F894EE27ECBBF1E0F5BFE5BFBD
:100078008DE0A2E0BB27ED938A95E9F780E098E050
:10008800A0E6ED930197E9F7EEE5F0E0859195910B
:10009800009761F0A591B59105901590BF01F00109
:1000A80005900D920197E1F7FB01F0CFEFE5EDBF69
:1000B800E8E0EEBFC0E6D2E00C948400AA93E981A0
:1000C800EEBBA981E8E00E94A401EFBBE881EDBB8B
:1000D800E29AE19AECB3F0E0F595E795E170E1304A
:1000E800C9F323960895BA93AA93E881EEBBA88131
:1000F800E8E00E94A401EFBBE09AEDB322960895D0
:10010800EFEFE7BBE0E0E8BBE0EFEABBE0E0EBBB2A
:10011800D89AD99ADA9AA0E5B0E0E5DFEF3FB9F0CE
:10012800A0E5B0E0E0DF7E2EC7D08824871478F4FD
:10013800C7D0EF3F51F0CED0FF93EF93C1D0AF912E
:10014800BF91EC93E82DCBD0B7D08394EFCF741444
:10015800C1F5772079F4E6E07E2EC7D0882487148D
:1001680048F4C9D0A081AADFB5D0A1E0A083A4D06B
:100178008394F5CF971458F4C9D019F4E1E06E2EA2
:1001880004C0C4D011F0662402C09394F3CF99241C
:10019800C09AC19AA8ECB0E00E949A01C098C19890
:1001A800E1E0E61529F4C09ABDD0C098442408C0FF
:1001B800662031F4C19AB6D0C1984424E1E06E2E8D
:1001C80079C0C89B27C0C89B06C05394AEE1B0E075
:1001D8000E949A01F8CFE4E15E1650F4E42D7FD036
:1001E800C19A6AD0C198C09A439466D0C09810C08A
:1001F800E4E15E1668F0E42DF0E0EA59FD4FA1E075
:10020800A083C09A59D0C19AC098439455D0C19838
:10021800552450C0CA9B4CC07724C09AC19ACA9B27
:100228002CC0C89B24C0C89B06C05394AEE1B0E064
:100238000E949A01F8CFE4E15E1648F4C19872D0A2
:10024800C19AE72DF0E0E05AFD4FA0E00BC0E4E1D1
:100258005E1660F0C19866D0C19AE72DF0E0E05ACA
:10026800FD4FA1E0A083E72D3AD073945524CA9995
:1002780003C058D0CA9B01C0D2CF37D0C098A6E9D6
:10028800B0E00E949A01C09A8824871468F433D099
:10029800A08114DFC098C198A6E9B0E00E949A0135
:1002A800C09AC19A8394F1CF4424C198C09802C0DF
:1002B800C098C1984CCFFFCFA4E6B0E00C949A0147
:1002C800682D7727A82DE8E0EA9FF001DB01AE0F43
:1002D800BF1F09CFE82DF0E0E05AFD4F0895F0E088
:1002E800EA59FD4FA0E0A0830895E0E5F0E0FA9315
:1002F800EA93A72DE3CE682D7727A82DE8E0EA9F9B
:10030800F001E60FF71FFA93EA93E4CFE92DF0E046
:10031800EA59FD4FA081E92DF0E0E05AFD4FE08158
:10032800EA170895A8ECB0E00C949A01109639F0F9
:10033800A8958DEC9AE00197F1F71197C9F7089500
:10034800EE230E2EEA2F19F0E6950A94E9F70895A0
:00000001FF
